:020000040800F2
:1000000000800020250B0008B5040008BD0400088E
:10001000C5040008CD040008D50400080000000055
:10002000000000000000000000000000DD040008E7
:10003000EB04000800000000F904000807050008B0
:10004000750B0008750B0008750B0008750B000890
:10005000750B0008750B0008750B0008750B000880
:10006000750B0008750B0008750B0008750B000870
:10007000750B0008750B0008750B0008750B000860
:10008000750B000800000000750B0008750B0008D8
:10009000750B0008750B0008750B0008750B000840
:1000A000750B0008750B0008750B0008750B000830
:1000B000750B0008750B0008750B0008750B000820
:1000C000750B0008750B0008750B0008750B000810
:1000D000750B0008750B0008750B0008750B000800
:1000E000750B0008750B0008750B0008750B0008F0
:1000F000750B0008750B0008750B00080000000068
:1001000000000000750B000800000000750B0008DF
:10011000750B000800000000750B0008750B000847
:10012000750B0008750B0008750B0008750B0008AF
:10013000750B00080000000000000000750B0008AF
:10014000750B0008750B000800000000000000009F
:10015000000000000000000000000000000000009F
:10016000000000000000000000000000750B000807
:10017000750B0008000000000000000000000000F7
:1001800000000000750B00080000000000000000E7
:10019000000000000000000000000000000000005F
:1001A0000000000000000000750B0008750B00083F
:1001B000750B0008750B0008750B000800000000A7
:1001C00000000000750B00080000000000000000A7
:0801D000750B0008750B000817
:1001D80010B5054C237833B9044B13B10448AFF379
:1001E80000800123237010BD4C0000200000000097
:1001F8005024000808B5034B1BB103490348AFF36B
:10020800008008BD000000005000002050240008B5
:1002180080B588B000AF07F10C0300221A605A605D
:100228009A60DA601A611E4BDB6C1D4A43F02003AA
:10023800D3641B4BDB6C03F02003BB60BB68184B1B
:10024800DB6C174A43F00103D364154BDB6C03F0F6
:1002580001037B607B68124BDB6C114A43F002039D
:10026800D3640F4BDB6C03F002033B603B68002256
:1002780007214FF0904000F073FF0723FB60012334
:100288003B6100237B610323BB6107F10C03194623
:100298004FF0904000F0E2FD00BF2037BD4680BD22
:1002A8000010024080B500AF00F061FC00F008F8D3
:1002B800FFF7AEFF00F056F800F018FC00BFFDE7AE
:1002C80080B594B000AF07F1180338220021184612
:1002D80002F08EF83B1D00221A605A609A60DA60BC
:1002E8001A61002000F054FF0223BB614FF48073B1
:1002F8007B624023BB6202237B630223BB6304232C
:10030800FB6355233B6402237B640223BB64022303
:10031800FB6407F11803184600F0EEFF0346002BB4
:1003280001D000F018F80F237B600323BB60002383
:10033800FB6000233B6100237B613B1D04211846C1
:1003480001F0ECFA0346002B01D000F004F800BFDE
:100358005037BD4680BD80B400AF72B600BF00BF45
:10036800FDE7000080B500AF1B4B1C4A1A601A4B12
:100378004FF482725A60184B00229A60164B4FF461
:10038800E062DA60144B02221A61134B00225A61B0
:10039800114B4FF400729A610F4B1022DA610E4B29
:1003A80000221A620C4B00225A620B4B00229A62FE
:1003B800094B0722DA62084B00221A63064B002217
:1003C8005A63054801F08EFC0346002B01D0FFF765
:1003D800C2FF00BF80BD00BF6800002000300140A0
:1003E80080B58AB000AF786007F1140300221A6064
:1003F8005A609A60DA601A617B681B68174A9342F0
:1004080028D1174B1B6E164A43F480531366144BBE
:100418001B6E03F480533B613B69114BDB6C104A44
:1004280043F00103D3640E4BDB6C03F00103FB6064
:10043800FB68A0237B610223BB610023FB610323CC
:100448003B6205237B6207F1140319464FF0904085
:1004580000F004FD00BF2837BD4680BD00300140D4
:100468000010024080B582B000AF0F4B1B6E0E4AE1
:1004780043F0010313660C4B1B6E03F001037B6012
:100488007B68094B9B6D084A43F080539365064B84
:100498009B6D03F080533B603B6800F01DFF00BF7D
:1004A8000837BD4680BD00BF0010024080B400AFD1
:1004B80000BFFDE780B400AF00BFFDE780B400AF28
:1004C80000BFFDE780B400AF00BFFDE780B400AF18
:1004D80000BFFDE780B400AF00BFBD465DF8047BF8
:1004E800704780B400AF00BFBD465DF8047B70471D
:1004F80080B400AF00BFBD465DF8047B704780B58F
:1005080000AF00F087FB00BF80BD000080B400AFE3
:10051800064BD3F88830054A43F47003C2F8883094
:1005280000BFBD465DF8047B704700BF00ED00E0EA
:10053800F0B593B00EAF0123FB731423BB730A23EA
:100548003B700A237B700223BB700023FB700123DE
:100558003B712F4BDB8A184600F0FAF94FE03B7AE3
:1005680018467B7A1946BB7A1A46FB7A1C46284BF2
:10057800DB8A0093234600F049FA3B7919463B7819
:100588007A782448890146180D920C936D4606F135
:1005980010040FCC0FC50FCC0FC594E80F0085E8E9
:1005A8000F0096E80F0000F049F83B783B723B7863
:1005B8000733DBB2BB727B787B727B780733DBB2A5
:1005C800FB723A7897F90230DBB21344DBB23B7026
:1005D8007A7897F90330DBB21344DBB27B707B780F
:1005E800EF2B08D9EF237B7097F90330DBB25B421E
:1005F800DBB25BB2FB70BB7B184600F029FBFB7BD0
:10060800002BACD100BF00BF1437BD46F0BD00BF02
:10061800040000207824000880B483B000AF0346AB
:10062800FB71FB79044A32F8133018460C37BD4683
:100638005DF8047B704700BF2400002084B080B5BB
:1006480084B000AF07F1180C8CE80F0007F12803FD
:100658007B6000233B730023FB730023BB730023E1
:100668007B732AE07B7B07F11802D35C3B733B7BEF
:100678001846FFF7D1FF03467B8197F858309AB2A6
:10068800BB7B9BB2134498B297F85C309AB2FB7B61
:100698009BB213449BB27A89194600F009F9BB7BD7
:1006A8000133BB73BB7B082B04D10023BB73FB7BDB
:1006B8000133FB737B7B01337B737B7B3F2BD1D96E
:1006C80000BF00BF1037BD46BDE8804004B070478A
:1006D80080B582B000AF0346FB71002202214FF0C3
:1006E800904000F03DFD002201214FF0904000F0C5
:1006F80037FD094B1868F91D4FF0FF33012201F04F
:100708009CFB012201214FF0904000F029FD00BF21
:100718000837BD4680BD00BFCC00002080B582B040
:1007280000AF78600B467B80012202214FF0904099
:1007380000F016FD002201214FF0904000F010FD5E
:10074800084B18687A884FF0FF33796801F075FB19
:10075800012201214FF0904000F002FD00BF083750
:10076800BD4680BDCC00002090B585B000AF0446E2
:10077800084611461A462346FB800346BB800B46B3
:100788007B8013463B807B88B3F5A07F02D340F281
:100798003F137B803B88EF2B01D9EF233B80FA88FE
:1007A8007B889A4201D9FB887B80BA883B889A4229
:1007B80001D9BB883B802A20FFF78AFFFB881B0AE8
:1007C8009BB2DBB23B73FB88DBB27B737B881B0A73
:1007D8009BB2DBB2BB737B88DBB2FB7307F10C0304
:1007E80004211846FFF79AFF2B20FFF771FFBB88FB
:1007F8001B0A9BB2DBB23B73BB88DBB27B733B88C3
:100808001B0A9BB2DBB2BB733B88DBB2FB7307F1FD
:100818000C0304211846FFF781FF00BF1437BD46BB
:1008280090BD000080B584B000AF78601F4A7B6837
:100838001360002204214FF0904000F091FC6420E6
:1008480000F006FA012204214FF0904000F088FCE5
:10085800642000F0FDF90120FFF73AFF962000F030
:10086800F7F91120FFF734FF782000F0F1F93A206A
:10087800FFF72EFF5523FB7307F10F0301211846DD
:10088800FFF74CFF012000F001F92120FFF720FFBE
:100898001320FFF71DFF2920FFF71AFF0A2000F099
:1008A800D7F900BF1037BD4680BD00BFCC0000207F
:1008B80080B584B000AF0346FB800B46BB8013466F
:1008C8007B802A20FFF704FFFB881B0A9BB2DBB260
:1008D8003B73FB88DBB27B73FB881B0A9BB2DBB2E2
:1008E800BB73FB88DBB2FB7307F10C0304211846CA
:1008F800FFF714FF2B20FFF7EBFEBB881B0A9BB208
:10090800DBB23B73BB88DBB27B73BB881B0A9BB231
:10091800DBB2BB73BB88DBB2FB7307F10C030421AA
:100928001846FFF7FBFE2C20FFF7D2FE7B881B0A38
:100938009BB2DBB23B737B88DBB27B7307F10C03A2
:1009480002211846FFF7EAFE00BF1037BD4680BDFA
:1009580080B586B000AF0346FB80FB881B0A9BB2BC
:10096800DBB23B74FB88DBB27B742A20FFF7B0FE56
:1009780000233B7300237B730123BB733F23FB736B
:1009880007F10C0304211846FFF7C8FE2B20FFF7D8
:100998009FFE00233B7200237B720023BB72EF2370
:1009A800FB7207F1080304211846FFF7B7FE2C2055
:1009B800FFF78EFE012202214FF0904000F0D0FB9D
:1009C80000237B6117E0002201214FF0904000F0E6
:1009D800C7FB0D4B186807F110014FF0FF330222D7
:1009E80001F02BFA012201214FF0904000F0B8FBF2
:1009F8007B6901337B617B69B3F5963FE3D300BF25
:100A080000BF1837BD4680BDCC00002090B585B02A
:100A180000AF0446084611461A462346FB800346A3
:100A2800BB800B467B8013463B803B8C1B0A9BB2EA
:100A3800DBB23B723B8CDBB27B723B887A88B9882D
:100A4800F888FFF791FE2C20FFF742FE0023FB6099
:100A580008E007F1080302211846FFF75FFEFB686C
:100A68000133FB607A88FB88D31A013319463A8828
:100A7800BB88D31A013301FB03F3FA689A42E8D31F
:100A880000BF00BF1437BD4690BD000080B584B0DC
:100A980000AF0346FB710023FB73FB79032B17D8C8
:100AA80001A252F823F000BFC10A0008C70A0008D3
:100AB800CD0A0008D30A00080023FB7309E060236D
:100AC800FB7306E0C023FB7303E0A023FB7300E085
:100AD80000BF3620FFF7FCFD07F10F030121184680
:100AE800FFF71CFE00BF1037BD4680BD80B500AFC4
:100AF8000948FFF797FE4CF21860FFF729FF41F20B
:100B0800883000F0A5F8FFF713FD41F2883000F0B7
:100B18009FF800BFEFE700BF680000200D4885463A
:100B2800FFF7F4FC0C480D490D4A002302E0D458A5
:100B3800C4500433C4188C42F9D30A4A0A4C00231F
:100B480001E013600432A242FBD301F059FCFFF725
:100B5800A9FBFEE700800020000000204C000020D8
:100B6800802500084C000020D4000020FEE780B556
:100B780082B000AF0023FB71032000F03DF90F2085
:100B880000F00EF80346002B02D00123FB7101E0B0
:100B9800FFF768FCFB7918460837BD4680BD0000A2
:100BA80080B584B000AF78600023FB73164B1B68D8
:100BB800002B22D0154B1A68134B1B684FF47A711F
:100BC800B1FBF3F3B2FBF3F3184600F03AF903462E
:100BD800002B0FD17B680F2B09D8002279684FF0C2
:100BE800FF3000F014F90A4A7B68136007E001231C
:100BF800FB7304E00123FB7301E00123FB73FB7B20
:100C080018461037BD4680BD48000020000000206F
:100C18004400002080B400AF054B1A68054B1B68E0
:100C28001344034A136000BFBD465DF8047B704758
:100C3800D00000204800002080B400AF034B1B68A0
:100C48001846BD465DF8047B704700BFD000002001
:100C580080B584B000AF7860FFF7EEFFB8607B68BE
:100C6800FB60FB68B3F1FF3F04D0094B1B68FA68CF
:100C78001344FB6000BFFFF7DFFF0246BB68D31ACF
:100C8800FA689A42F7D800BF00BF1037BD4680BD4A
:100C98004800002080B485B000AF78607B6803F01E
:100CA8000703FB600C4BDB68BB60BA684FF6FF03B9
:100CB8001340BB60FB681A02BB68134343F0BF6371
:100CC80043F40033BB60044ABB68D36000BF1437E9
:100CD800BD465DF8047B704700ED00E080B400AFCE
:100CE800044BDB681B0A03F007031846BD465DF892
:100CF800047B704700ED00E080B483B000AF03468A
:100D08003960FB7197F90730002B0ADB3B68DAB2D0
:100D18000C4997F907301201D2B20B4483F800232B
:100D28000AE03B68DAB20849FB7903F00F03043B99
:100D38001201D2B20B441A7600BF0C37BD465DF8DB
:100D4800047B704700E100E000ED00E080B489B06A
:100D580000AFF860B9607A60FB6803F00703FB61D5
:100D6800FB69C3F10703042B28BF0423BB61FB699C
:100D78000433062B02D9FB69033B00E000237B61A7
:100D88004FF0FF32BB6902FA03F3DA43BB681A403B
:100D98007B699A404FF0FF317B6901FA03F3D9432D
:100DA8007B680B40134318462437BD465DF8047B27
:100DB8007047000080B582B000AF78607B68013B67
:100DC800B3F1807F01D301230FE00A4A7B68013B1E
:100DD80053600F214FF0FF30FFF78EFF054B0022C5
:100DE8009A60044B07221A60002318460837BD464C
:100DF80080BD00BF10E000E080B582B000AF786031
:100E08007868FFF747FF00BF0837BD4680BD80B54B
:100E180086B000AF0346B9607A60FB73FFF75EFFE8
:100E280078617A68B9687869FFF790FF024697F9A0
:100E38000F3011461846FFF75FFF00BF1837BD4651
:100E480080BD80B582B000AF78607868FFF7B2FFE8
:100E5800034618460837BD4680BD000080B487B0F9
:100E680000AF7860396000237B615AE13B681A68FB
:100E780001217B6901FA03F31340FB60FB68002B37
:100E880000F04C813B685B6803F00303012B05D03D
:100E98003B685B6803F00303022B30D17B689B68D7
:100EA8003B617B695B00032202FA03F3DB433A6987
:100EB80013403B613B68DA687B695B0002FA03F325
:100EC8003A6913433B617B683A699A607B685B685F
:100ED8003B6101227B6902FA03F3DB433A69134061
:100EE8003B613B685B681B0903F001027B6902FAFE
:100EF80003F33A6913433B617B683A695A603B687C
:100F08005B6803F00303032B17D07B68DB683B6146
:100F18007B695B00032202FA03F3DB433A6913405F
:100F28003B613B689A687B695B0002FA03F33A69A4
:100F380013433B617B683A69DA603B685B6803F09E
:100F48000303022B23D17B69DA087B68083253F844
:100F580022303B617B6903F007039B000F2202FAF2
:100F680003F3DB433A6913403B613B681A697B69C9
:100F780003F007039B0002FA03F33A6913433B614A
:100F88007B69DA087B680832396943F822107B6884
:100F98001B683B617B695B00032202FA03F3DB43B6
:100FA8003A6913403B613B685B6803F003027B6965
:100FB8005B0002FA03F33A6913433B617B683A69C1
:100FC8001A603B685B6803F44033002B00F0A6808E
:100FD8005B4B1B6E5A4A43F001031366584B1B6E5A
:100FE80003F00103BB60BB68564A7B699B08023368
:100FF80052F823303B617B6903F003039B000F2207
:1010080002FA03F3DB433A6913403B617B68B3F1AF
:10101800904F1FD07B684C4A934219D07B684B4A4B
:10102800934213D07B684A4A93420DD07B68494A61
:10103800934207D07B68484A934201D105230AE0CE
:10104800062308E0042306E0032304E0022302E069
:10105800012300E000237A6902F003029200934022
:101068003A6913433B6137497B699B0802333A6904
:1010780041F82320394B9B683B61FB68DB433A69A5
:1010880013403B613B685B6803F48013002B03D07B
:101098003A69FB6813433B61304A3B6993602F4BC5
:1010A800DB683B61FB68DB433A6913403B613B68A3
:1010B8005B6803F40013002B03D03A69FB68134301
:1010C8003B61264A3B69D360244B5B683B61FB6804
:1010D800DB433A6913403B613B685B6803F40033C8
:1010E800002B03D03A69FB6813433B611B4A3B69F9
:1010F80053601A4B1B683B61FB68DB433A6913403A
:101108003B613B685B6803F48033002B03D03A698A
:10111800FB6813433B61114A3B6913607B690133E8
:101128007B613B681A687B6922FA03F3002B7FF422
:101138009DAE00BF00BF1C37BD465DF8047B7047FD
:101148000010024000000140000400480008004868
:10115800000C00480010004800140048000401403A
:1011680080B483B000AF78600B467B8013467B70F9
:101178007B78002B03D07A887B689A6102E07A88B2
:101188007B689A6200BF0C37BD465DF8047B7047E8
:1011980080B485B000AF78607B68002B41D14B4BA1
:1011A8001B6803F4C063B3F5806F31D1474BD3F8A4
:1011B8008030464A23F48073C2F88030434B1B6862
:1011C80023F4C063414A43F400731360404B1B6827
:1011D800322202FB03F33F4AA2FB03239B0C013399
:1011E800FB6002E0FB68013BFB60384B5B6903F482
:1011F8008063B3F5806F02D1FB68002BF2D1334BCB
:101208005B6903F48063B3F5806F58D1032357E01B
:101218002E4BD3F880302D4A23F48073C2F88030E7
:101228004DE07B68B3F5007F41D1284B1B6803F480
:10123800C063B3F5806F31D1244BD3F88030234A93
:1012480043F48073C2F88030204B1B6823F4C063DA
:101258001E4A43F4007313601D4B1B68322202FBC5
:1012680003F31C4AA2FB03239B0C0133FB6002E03F
:10127800FB68013BFB60154B5B6903F48063B3F5C6
:10128800806F02D1FB68002BF2D1104B5B6903F42D
:101298008063B3F5806F12D1032311E00B4BD3F8B1
:1012A80080300A4A43F48073C2F8803007E0074B65
:1012B8001B6823F4C063054A43F48063136000236A
:1012C80018461437BD465DF8047B7047007000402F
:1012D8000000002083DE1B4380B400AF054B9B68F1
:1012E800044A43F48043936000BFBD465DF8047B25
:1012F800704700BF0070004080B588B000AF7860CC
:101308007B68002B01D10123FEE27B681B6803F098
:101318000103002B75D0974B9B6803F00C03BB614E
:10132800944BDB6803F003037B61BB690C2B02D190
:101338007B69032B02D0BB69082B0BD18D4B1B6833
:1013480003F40033002B5BD07B685B68002B57D11C
:101358000123D9E27B685B68B3F5803F06D1854BF2
:101368001B68844A43F4803313601DE07B685B6824
:10137800B3F5A02F0CD17F4B1B687E4A43F4802322
:1013880013607C4B1B687B4A43F4803313600BE08B
:10139800784B1B68774A23F480331360754B1B68BE
:1013A800744A23F4802313607B685B68002B13D096
:1013B800FFF742FC386108E0FFF73EFC02463B6954
:1013C800D31A642B01D903239EE26A4B1B6803F4EA
:1013D8000033002BF0D014E0FFF72EFC386108E052
:1013E800FFF72AFC02463B69D31A642B01D9032371
:1013F8008AE2604B1B6803F40033002BF0D100E055
:1014080000BF7B681B6803F00203002B75D0594BA3
:101418009B6803F00C03BB61564BDB6803F00303C6
:101428007B61BB690C2B02D17B69022B02D0BB69A3
:10143800042B1FD14F4B1B6803F48063002B05D08E
:101448007B68DB68002B01D101235DE2494B5B68B7
:1014580023F0FE427B681B691B06464913434B6019
:10146800454B1B681846FFF79BFB0346002B43D0F0
:10147800012349E27B68DB68002B23D03D4B1B68C6
:101488003C4A43F480731360FFF7D6FB386108E0E9
:10149800FFF7D2FB02463B69D31A022B01D903237B
:1014A80032E2344B1B6803F48063002BF0D0314BDD
:1014B8005B6823F0FE427B681B691B062D491343BA
:1014C8004B601AE02B4B1B682A4A23F48073136085
:1014D800FFF7B2FB386108E0FFF7AEFB02463B6955
:1014E800D31A022B01D903230EE2224B1B6803F403
:1014F8008063002BF0D100E000BF7B681B6803F01D
:101508000803002B41D07B685B69002B1CD0194B6A
:10151800D3F89430174A43F00103C2F89430FFF728
:101528008BFB386108E0FFF787FB02463B69D31A5B
:10153800022B01D90323E7E10E4BD3F8943003F0D3
:101548000203002BEFD020E00A4BD3F89430094A6D
:1015580023F00103C2F89430FFF76EFB38610DE009
:10156800FFF76AFB02463B69D31A022B06D903230D
:10157800CAE100BF00100240440000208C4BD3F8A1
:10158800943003F00203002BEAD17B681B6803F058
:101598000403002B00F0A6800023FB77844B9B6D8F
:1015A80003F08053002B01D1012300E00023002B1E
:1015B8000DD07F4B9B6D7E4A43F0805393657C4BE7
:1015C8009B6D03F08053FB60FB680123FB77794B2D
:1015D8001B6803F48073002B18D1764B1B68754A7F
:1015E80043F480731360FFF727FB386108E0FFF7C7
:1015F80023FB02463B69D31A022B01D9032383E15B
:101608006C4B1B6803F48073002BF0D07B689B68DD
:10161800012B08D1664BD3F89030654A43F001039B
:10162800C2F8903024E07B689B68052B10D1604B92
:10163800D3F890305E4A43F00403C2F890305C4B14
:10164800D3F890305A4A43F00103C2F890300FE0C3
:10165800574BD3F89030564A23F00103C2F8903024
:10166800534BD3F89030524A23F00403C2F8903019
:101678007B689B68002B16D0FFF7DEFA38610AE01A
:10168800FFF7DAFA02463B69D31A41F288329342ED
:1016980001D9032338E1464BD3F8903003F0020315
:1016A800002BEDD015E0FFF7C7FA38610AE0FFF725
:1016B800C3FA02463B69D31A41F28832934201D9F0
:1016C800032321E13A4BD3F8903003F00203002BB7
:1016D800EDD1FB7F012B05D1354B9B6D344A23F0AF
:1016E800805393657B681B6803F02003002B3CD074
:1016F8007B689B69002B1CD02D4BD3F898302C4A63
:1017080043F00103C2F89830FFF796FA386108E011
:10171800FFF792FA02463B69D31A022B01D9032339
:10172800F2E0234BD3F8983003F00203002BEFD0FC
:101738001BE01F4BD3F898301D4A23F00103C2F871
:101748009830FFF779FA386108E0FFF775FA024632
:101758003B69D31A022B01D90323D5E0144BD3F8E4
:10176800983003F00203002BEFD17B68DB69002B74
:1017780000F0C9800E4B9B6803F00C030C2B00F0A3
:1017880083807B68DB69022B5ED1094B1B68084AA2
:1017980023F080731360FFF74FFA38610CE0FFF70E
:1017A8004BFA02463B69D31A022B05D90323ABE057
:1017B8000010024000700040554B1B6803F0007396
:1017C800002BECD1524BDA68524B13407A68116AFD
:1017D8007A68526A013A120111437A68926A1202CF
:1017E80011437A68126B5208013A520511437A681C
:1017F800526B5208013A520611437A68D26AD206ED
:101808000A4343491343CB60414B1B68404A43F0AA
:10181800807313603E4BDB683D4A43F08073D360AE
:10182800FFF70AFA386108E0FFF706FA02463B6953
:10183800D31A022B01D9032366E0354B1B6803F04A
:101848000073002BF0D05EE0314B1B68304A23F068
:1018580080731360FFF7F0F9386108E0FFF7ECF9DF
:1018680002463B69D31A022B01D903234CE0284BCB
:101878001B6803F00073002BF0D1254BDA6824496C
:10188800254B1340CB603EE07B68DB69012B01D11F
:10189800012339E01E4BDB687B617B6903F003029F
:1018A8007B681B6A9A422CD17B6903F0F0027B6843
:1018B8005B6A013B1B019A4223D17B6903F4FE4218
:1018C8007B689B6A1B029A421BD17B6903F07842B2
:1018D8007B68DB6ADB069A4213D17B6903F4C0029A
:1018E8007B681B6B5B08013B5B059A4209D17B69EE
:1018F80003F0C0627B685B6B5B08013B5B069A4246
:1019080001D0012300E0002318462037BD4680BDE2
:10191800001002400C809F01FCFFEEFE80B586B0EF
:1019280000AF7860396000237B617B68002B01D1B0
:1019380001231EE1914B1B6803F00F033A689A429A
:1019480010D98E4B1B6823F00F028C493B68134358
:101958000B608A4B1B6803F00F033A689A4201D068
:10196800012306E17B681B6803F00103002B73D099
:101978007B685B68032B29D1814B1B6803F00073DC
:10198800002B01D10123F4E000F066F938613B69CE
:101998007C4A93423FD97A4B9B6803F0F003002BB3
:1019A80009D07B681B6803F00203002B33D07B68E7
:1019B8009B68002B2FD1724B9B6823F0F003704A71
:1019C80043F08003936080237B6124E07B685B683D
:1019D800022B07D16A4B1B6803F40033002B09D193
:1019E8000123C6E0664B1B6803F48063002B01D11A
:1019F8000123BEE000F0CEF838613B69614A9342AA
:101A080009D95F4B9B6823F0F0035D4A43F08003DC
:101A1800936080237B615A4B9B6823F003027B68A9
:101A28005B68574913438B60FFF706F9F8600AE0D3
:101A3800FFF702F90246FB68D31A41F28832934253
:101A480001D9032395E04E4B9B6803F00C027B6899
:101A58005B689B009A42EBD17B681B6803F002032A
:101A6800002B23D07B681B6803F00403002B05D0F0
:101A7800434B9B68424A43F4E06393607B681B686E
:101A880003F00803002B07D03D4B9B6823F47C53DD
:101A98003B4A43F4E0639360394B9B6823F0F002C0
:101AA8007B689B68364913438B6008E07B69802B11
:101AB80005D1334B9B68324A23F0F00393602F4BD8
:101AC8001B6803F00F033A689A421DD22B4B1B6820
:101AD80023F00F0229493B6813430B60FFF7ACF86A
:101AE800F8600AE0FFF7A8F80246FB68D31A41F24B
:101AF8008832934201D903233BE0204B1B6803F053
:101B08000F033A689A42EDD17B681B6803F004031F
:101B1800002B08D01A4B9B6823F4E0627B68DB68D3
:101B2800174913438B607B681B6803F00803002B7D
:101B380009D0134B9B6823F460527B681B69DB0058
:101B48000F4913438B6000F025F802460C4B9B6845
:101B58001B0903F00F030C49CB5C03F01F0322FAA7
:101B680003F30A4A13600A4B1B681846FFF718F874
:101B7800034618461837BD4680BD00BF0020024006
:101B88000010024000B4C4046824000800000020CB
:101B98004400002080B487B000AF2C4B9B6803F052
:101BA8000C03042B02D12A4B3B6147E0274B9B686F
:101BB80003F00C03082B02D1264B3B613EE0234B7C
:101BC8009B6803F00C030C2B36D1204BDB6803F029
:101BD8000303FB601D4BDB681B0903F00F03013394
:101BE800BB60FB68032B0CD11A4ABB68B2FBF3F34A
:101BF800164AD268120A02F07F0202FB03F37B61E5
:101C08000CE0134ABB68B2FBF3F3104AD268120A1D
:101C180002F07F0202FB03F37B6100BF0B4BDB6822
:101C28005B0E03F0030301335B007B607A697B681A
:101C3800B2FBF3F33B6101E000233B613B691846CB
:101C48001C37BD465DF8047B704700BF001002409A
:101C58000024F40000127A0080B487B000AF1E4B55
:101C6800DB6803F003033B611B4BDB681B0903F0D4
:101C78000F030133FB603B69032B0CD1174AFB6848
:101C8800B2FBF3F3144AD268120A02F07F0202FB95
:101C980003F37B610CE0124AFB68B2FBF3F30E4AD4
:101CA800D268120A02F07F0202FB03F37B6100BFD5
:101CB800094BDB685B0E03F0030301335B00BB6079
:101CC8007A69BB68B2FBF3F37B607B6818461C3704
:101CD800BD465DF8047B70470010024000127A0090
:101CE8000024F40080B584B000AF78607B68002BD6
:101CF80001D101239DE07B685B6A002B08D17B68DA
:101D08005B68B3F5827F09D07B680022DA6105E061
:101D18007B6800221A617B6800225A617B68002276
:101D28009A627B6893F85D30DBB2002B06D17B6842
:101D3800002283F85C207868FEF752FB7B68022259
:101D480083F85D207B681B681A687B681B6822F033
:101D580040021A607B68DB68B3F5E06F02D90023A4
:101D6800FB6002E04FF48053FB607B68DB68B3F5EF
:101D7800706F07D07B68DB68B3F5E06F02D07B68D3
:101D880000229A627B685B6803F482727B689B68B6
:101D980003F404431A437B681B6903F002031A43E4
:101DA8007B685B6903F001031A437B689B6903F452
:101DB80000731A437B68DB6903F038031A437B68B6
:101DC8001B6A03F0800342EA03017B689B6A03F401
:101DD80000527B681B680A431A607B689B691B0C6E
:101DE80003F004027B685B6A03F010031A437B6804
:101DF8005B6B03F008031A437B68DB6803F47063CA
:101E080042EA0301FB6803F480527B681B680A43BB
:101E18005A607B681B68DA697B681B6822F4006279
:101E2800DA617B6800221A667B68012283F85D20EC
:101E3800002318461037BD4680BD80B588B000AF76
:101E4800F860B9603B601346FB80FEF7F5FEF86169
:101E5800FB887B83FB6893F85D30DBB2012B01D0F4
:101E680002235CE1BB68002B02D0FB88002B01D168
:101E7800012354E1FB6893F85C30012B01D1022364
:101E88004DE1FB68012283F85C20FB68032283F89C
:101E98005D20FB6800221A66FB68BA689A63FB68D3
:101EA800FA889A87FB68FA88DA87FB6800221A643E
:101EB800FB680022A3F84420FB680022A3F8462010
:101EC800FB6800221A65FB680022DA64FB689B68DD
:101ED800B3F5004F0FD1FB681B681A68FB681B68D5
:101EE80022F040021A60FB681B681A68FB681B68CE
:101EF80042F480421A60FB681B681B6803F04003C9
:101F0800402B07D0FB681B681A68FB681B6842F007
:101F180040021A60FB68DB68B3F5E06F52D9FB68D2
:101F28005B68002B02D07B8B012B45D1FB689B6B38
:101F38001A88FB681B68DA60FB689B6B9A1CFB6855
:101F48009A63FB68DB8F9BB2013B9AB2FB68DA8726
:101F580032E0FB681B689B6803F00203022B12D176
:101F6800FB689B6B1A88FB681B68DA60FB689B6BD5
:101F78009A1CFB689A63FB68DB8F9BB2013B9AB2A1
:101F8800FB68DA8718E0FEF757FE0246FB69D31AAA
:101F98003A689A4203D83B68B3F1FF3F02D13B68E5
:101FA800002B09D1FB68012283F85D20FB68002221
:101FB80083F85C200323B2E0FB68DB8F9BB2002B25
:101FC800C7D183E0FB685B68002B02D07B8B012BB9
:101FD80077D1FB68DB8F9BB2012B12D9FB689B6B17
:101FE8001A88FB681B68DA60FB689B6B9A1CFB68A5
:101FF8009A63FB68DB8F9BB2023B9AB2FB68DA8775
:102008005FE0FB689A6BFB681B680C3312781A70E8
:10201800FB689B6B5A1CFB689A63FB68DB8F9BB25F
:10202800013B9AB2FB68DA874BE0FB681B689B6848
:1020380003F00203022B2BD1FB68DB8F9BB2012B31
:1020480012D9FB689B6B1A88FB681B68DA60FB680F
:102058009B6B9A1CFB689A63FB68DB8F9BB2023B05
:102068009AB2FB68DA872CE0FB689A6BFB681B68FE
:102078000C3312781A70FB689B6B5A1CFB689A63C6
:10208800FB68DB8F9BB2013B9AB2FB68DA8718E0EA
:10209800FEF7D2FD0246FB69D31A3A689A4203D882
:1020A8003B68B3F1FF3F02D13B68002B09D1FB68C5
:1020B800012283F85D20FB68002283F85C2003235B
:1020C8002DE0FB68DB8F9BB2002BAED1FA69396833
:1020D800F86800F047F90346002B02D0FB6820227D
:1020E8001A66FB689B68002B0AD100237B61FB689A
:1020F8001B68DB687B61FB681B689B687B617B698D
:10210800FB68012283F85D20FB68002283F85C20CD
:10211800FB681B6E002B01D0012300E0002318464A
:102128002037BD4680BD000080B588B000AFF8609C
:10213800B9603B601346FB71FEF77EFD0246BB6A41
:102148009B1A3A681344FB61FEF776FDB861394B78
:102158001B685B011B0DFA6902FB03F37B6154E00A
:102168003B68B3F1FF3F50D0FEF766FD0246BB69FE
:10217800D31AFA699A4202D9FB69002B3DD1FB6850
:102188001B685A68FB681B6822F0E0025A60FB680B
:102198005B68B3F5827F11D1FB689B68B3F5004F8C
:1021A80004D0FB689B68B3F5806F07D1FB681B6898
:1021B8001A68FB681B6822F040021A60FB689B6A79
:1021C800B3F5005F0FD1FB681B681A68FB681B68D2
:1021D80022F400521A60FB681B681A68FB681B68C7
:1021E80042F400521A60FB68012283F85D20FB6804
:1021F800002283F85C20032317E07B69002B01D1C0
:102208000023FB617B69013B7B61FB681B689A6863
:10221800BB681340BA689A420CBF01230023DBB2A3
:102228001A46FB799A429BD1002318462037BD46AF
:1022380080BD00BF0000002080B58AB000AFF86004
:10224800B9607A603B600023FB75FEF7F5FC024637
:102258003B6B9B1A3A6813447B62FEF7EDFC3862CD
:10226800FB681B680C33FB613D4B1A6813469B00E7
:102278001344DA00D31A1B0D7A6A02FB03F3BB611D
:1022880060E0BB68B3F5C06F07D17B68002B04D151
:10229800FB691B78DBB2FB75FB7D3B68B3F1FF3F45
:1022A80050D0FEF7C9FC02463B6AD31A7A6A9A42B2
:1022B80002D97B6A002B3DD1FB681B685A68FB6812
:1022C8001B6822F0E0025A60FB685B68B3F5827F06
:1022D80011D1FB689B68B3F5004F04D0FB689B687D
:1022E800B3F5806F07D1FB681B681A68FB681B6829
:1022F80022F040021A60FB689B6AB3F5005F0FD1B9
:10230800FB681B681A68FB681B6822F400521A6095
:10231800FB681B681A68FB681B6842F400521A6065
:10232800FB68012283F85D20FB68002283F85C20AB
:10233800032310E0BB69002B01D100237B62BB693A
:10234800013BBB61FB681B689A68BB6813407A68ED
:102358009A4296D1002318462837BD4680BD00BF53
:102368000000002080B586B002AFF860B9607A60DE
:102378007B680093BB6800224FF4C051F868FFF7F0
:102388005BFF0346002B07D0FB681B6E43F020025F
:10239800FB681A66032327E07B680093BB6800226A
:1023A8008021F868FFF7C0FE0346002B07D0FB68C2
:1023B8001B6E43F02002FB681A66032314E07B6857
:1023C8000093BB6800224FF4C061F868FFF734FF40
:1023D8000346002B07D0FB681B6E43F02002FB6806
:1023E8001A66032300E0002318461037BD4680BD57
:1023F80002440346934200D1704703F8011BF9E7F2
:1024080070B50D4D0D4C641BA4100026A64209D1D1
:102418000B4D0C4C00F018F8641BA4100026A642C3
:1024280005D170BD55F8043B98470136EEE755F8DD
:10243800043B98470136F2E778250008782500081C
:10244800782500087C250008F8B500BFF8BC08BC52
:102458009E467047F8B500BFF8BC08BC9E4670475A
:10246800000000000000000001020304060708093C
:10247800010101010101010101000000000000014A
:102488000100000000000001010000000000000140
:102498000100000000000001010000000000000130
:1024A800010000000000000101010101010101011A
:1024B8000B0B070707070B0B0B0707070707070B8C
:1024C8000707070707070707070707070707070794
:1024D8000707070707070707070707070707070784
:1024E8000B0707070707070B0B0B070707070B0B5C
:1024F80001010101010101010100000000000001CA
:1025080001000000000000010100000000000001BF
:1025180001000000000000010100000000000001AF
:102528000100000000000001010101010101010199
:102538000101010101010101010000000000000189
:10254800010000000000000101000000000000017F
:10255800010000000000000101000000000000016F
:102568000100000000000001010101010101010159
:04257800FD01000859
:04257C00D901000879
:102580000024F4000000FFFF1F00BAD6228AFF07D4
:10259000100000F80842E0030078A0FE1084E00775
:1025A0007C7D18C60000FFFF1F00BAD6228AFF07F5
:1025B000100000F80842E0030078A0FE1084E00755
:0C25C0007C7D18C6100000000100000027
:0400000508000B25BF
:00000001FF
